{
  "contractName": "SolutionVerifier",
  "abi": [
    {
      "inputs": [
        {
          "internalType": "address",
          "name": "verifierAddress",
          "type": "address"
        }
      ],
      "stateMutability": "nonpayable",
      "type": "constructor"
    },
    {
      "anonymous": false,
      "inputs": [
        {
          "indexed": true,
          "internalType": "address",
          "name": "owner",
          "type": "address"
        },
        {
          "indexed": true,
          "internalType": "address",
          "name": "approved",
          "type": "address"
        },
        {
          "indexed": true,
          "internalType": "uint256",
          "name": "tokenId",
          "type": "uint256"
        }
      ],
      "name": "Approval",
      "type": "event"
    },
    {
      "anonymous": false,
      "inputs": [
        {
          "indexed": true,
          "internalType": "address",
          "name": "owner",
          "type": "address"
        },
        {
          "indexed": true,
          "internalType": "address",
          "name": "operator",
          "type": "address"
        },
        {
          "indexed": false,
          "internalType": "bool",
          "name": "approved",
          "type": "bool"
        }
      ],
      "name": "ApprovalForAll",
      "type": "event"
    },
    {
      "anonymous": false,
      "inputs": [
        {
          "indexed": true,
          "internalType": "address",
          "name": "previousOwner",
          "type": "address"
        },
        {
          "indexed": true,
          "internalType": "address",
          "name": "newOwner",
          "type": "address"
        }
      ],
      "name": "OwnershipTransferred",
      "type": "event"
    },
    {
      "anonymous": false,
      "inputs": [
        {
          "indexed": false,
          "internalType": "address",
          "name": "account",
          "type": "address"
        }
      ],
      "name": "Paused",
      "type": "event"
    },
    {
      "anonymous": false,
      "inputs": [
        {
          "indexed": false,
          "internalType": "uint256",
          "name": "solutionIndex",
          "type": "uint256"
        },
        {
          "indexed": false,
          "internalType": "address",
          "name": "solutionAddress",
          "type": "address"
        }
      ],
      "name": "SolutionAdded",
      "type": "event"
    },
    {
      "anonymous": false,
      "inputs": [
        {
          "indexed": false,
          "internalType": "uint256",
          "name": "solutionIndex",
          "type": "uint256"
        }
      ],
      "name": "SolutionMinted",
      "type": "event"
    },
    {
      "anonymous": false,
      "inputs": [
        {
          "indexed": true,
          "internalType": "address",
          "name": "from",
          "type": "address"
        },
        {
          "indexed": true,
          "internalType": "address",
          "name": "to",
          "type": "address"
        },
        {
          "indexed": true,
          "internalType": "uint256",
          "name": "tokenId",
          "type": "uint256"
        }
      ],
      "name": "Transfer",
      "type": "event"
    },
    {
      "anonymous": false,
      "inputs": [
        {
          "indexed": false,
          "internalType": "address",
          "name": "account",
          "type": "address"
        }
      ],
      "name": "Unpaused",
      "type": "event"
    },
    {
      "inputs": [
        {
          "internalType": "address",
          "name": "to",
          "type": "address"
        },
        {
          "internalType": "uint256",
          "name": "tokenId",
          "type": "uint256"
        }
      ],
      "name": "approve",
      "outputs": [],
      "stateMutability": "nonpayable",
      "type": "function"
    },
    {
      "inputs": [
        {
          "internalType": "address",
          "name": "owner",
          "type": "address"
        }
      ],
      "name": "balanceOf",
      "outputs": [
        {
          "internalType": "uint256",
          "name": "",
          "type": "uint256"
        }
      ],
      "stateMutability": "view",
      "type": "function",
      "constant": true
    },
    {
      "inputs": [
        {
          "internalType": "uint256",
          "name": "tokenId",
          "type": "uint256"
        }
      ],
      "name": "getApproved",
      "outputs": [
        {
          "internalType": "address",
          "name": "",
          "type": "address"
        }
      ],
      "stateMutability": "view",
      "type": "function",
      "constant": true
    },
    {
      "inputs": [
        {
          "internalType": "address",
          "name": "owner",
          "type": "address"
        },
        {
          "internalType": "address",
          "name": "operator",
          "type": "address"
        }
      ],
      "name": "isApprovedForAll",
      "outputs": [
        {
          "internalType": "bool",
          "name": "",
          "type": "bool"
        }
      ],
      "stateMutability": "view",
      "type": "function",
      "constant": true
    },
    {
      "inputs": [],
      "name": "numberOfSolutions",
      "outputs": [
        {
          "internalType": "uint256",
          "name": "",
          "type": "uint256"
        }
      ],
      "stateMutability": "view",
      "type": "function",
      "constant": true
    },
    {
      "inputs": [],
      "name": "owner",
      "outputs": [
        {
          "internalType": "address",
          "name": "",
          "type": "address"
        }
      ],
      "stateMutability": "view",
      "type": "function",
      "constant": true
    },
    {
      "inputs": [
        {
          "internalType": "uint256",
          "name": "tokenId",
          "type": "uint256"
        }
      ],
      "name": "ownerOf",
      "outputs": [
        {
          "internalType": "address",
          "name": "",
          "type": "address"
        }
      ],
      "stateMutability": "view",
      "type": "function",
      "constant": true
    },
    {
      "inputs": [],
      "name": "paused",
      "outputs": [
        {
          "internalType": "bool",
          "name": "",
          "type": "bool"
        }
      ],
      "stateMutability": "view",
      "type": "function",
      "constant": true
    },
    {
      "inputs": [],
      "name": "renounceOwnership",
      "outputs": [],
      "stateMutability": "nonpayable",
      "type": "function"
    },
    {
      "inputs": [
        {
          "internalType": "address",
          "name": "from",
          "type": "address"
        },
        {
          "internalType": "address",
          "name": "to",
          "type": "address"
        },
        {
          "internalType": "uint256",
          "name": "tokenId",
          "type": "uint256"
        }
      ],
      "name": "safeTransferFrom",
      "outputs": [],
      "stateMutability": "nonpayable",
      "type": "function"
    },
    {
      "inputs": [
        {
          "internalType": "address",
          "name": "from",
          "type": "address"
        },
        {
          "internalType": "address",
          "name": "to",
          "type": "address"
        },
        {
          "internalType": "uint256",
          "name": "tokenId",
          "type": "uint256"
        },
        {
          "internalType": "bytes",
          "name": "_data",
          "type": "bytes"
        }
      ],
      "name": "safeTransferFrom",
      "outputs": [],
      "stateMutability": "nonpayable",
      "type": "function"
    },
    {
      "inputs": [
        {
          "internalType": "address",
          "name": "to",
          "type": "address"
        },
        {
          "internalType": "bool",
          "name": "approved",
          "type": "bool"
        }
      ],
      "name": "setApprovalForAll",
      "outputs": [],
      "stateMutability": "nonpayable",
      "type": "function"
    },
    {
      "inputs": [
        {
          "internalType": "bytes32",
          "name": "",
          "type": "bytes32"
        }
      ],
      "name": "solutions",
      "outputs": [
        {
          "internalType": "uint256",
          "name": "solutionIndex",
          "type": "uint256"
        },
        {
          "internalType": "address",
          "name": "solutionAddress",
          "type": "address"
        },
        {
          "internalType": "bool",
          "name": "solutionExists",
          "type": "bool"
        },
        {
          "internalType": "bool",
          "name": "minted",
          "type": "bool"
        }
      ],
      "stateMutability": "view",
      "type": "function",
      "constant": true
    },
    {
      "inputs": [
        {
          "internalType": "bytes4",
          "name": "interfaceId",
          "type": "bytes4"
        }
      ],
      "name": "supportsInterface",
      "outputs": [
        {
          "internalType": "bool",
          "name": "",
          "type": "bool"
        }
      ],
      "stateMutability": "view",
      "type": "function",
      "constant": true
    },
    {
      "inputs": [
        {
          "internalType": "uint256",
          "name": "index",
          "type": "uint256"
        }
      ],
      "name": "tokenByIndex",
      "outputs": [
        {
          "internalType": "uint256",
          "name": "",
          "type": "uint256"
        }
      ],
      "stateMutability": "view",
      "type": "function",
      "constant": true
    },
    {
      "inputs": [
        {
          "internalType": "address",
          "name": "owner",
          "type": "address"
        },
        {
          "internalType": "uint256",
          "name": "index",
          "type": "uint256"
        }
      ],
      "name": "tokenOfOwnerByIndex",
      "outputs": [
        {
          "internalType": "uint256",
          "name": "",
          "type": "uint256"
        }
      ],
      "stateMutability": "view",
      "type": "function",
      "constant": true
    },
    {
      "inputs": [
        {
          "internalType": "uint256",
          "name": "tokenId",
          "type": "uint256"
        }
      ],
      "name": "tokenURI",
      "outputs": [
        {
          "internalType": "string",
          "name": "",
          "type": "string"
        }
      ],
      "stateMutability": "view",
      "type": "function",
      "constant": true
    },
    {
      "inputs": [],
      "name": "totalSupply",
      "outputs": [
        {
          "internalType": "uint256",
          "name": "",
          "type": "uint256"
        }
      ],
      "stateMutability": "view",
      "type": "function",
      "constant": true
    },
    {
      "inputs": [
        {
          "internalType": "address",
          "name": "from",
          "type": "address"
        },
        {
          "internalType": "address",
          "name": "to",
          "type": "address"
        },
        {
          "internalType": "uint256",
          "name": "tokenId",
          "type": "uint256"
        }
      ],
      "name": "transferFrom",
      "outputs": [],
      "stateMutability": "nonpayable",
      "type": "function"
    },
    {
      "inputs": [
        {
          "internalType": "address",
          "name": "newOwner",
          "type": "address"
        }
      ],
      "name": "transferOwnership",
      "outputs": [],
      "stateMutability": "nonpayable",
      "type": "function"
    },
    {
      "inputs": [
        {
          "internalType": "uint256[2]",
          "name": "a",
          "type": "uint256[2]"
        },
        {
          "internalType": "uint256[2][2]",
          "name": "b",
          "type": "uint256[2][2]"
        },
        {
          "internalType": "uint256[2]",
          "name": "c",
          "type": "uint256[2]"
        },
        {
          "internalType": "uint256[2]",
          "name": "input",
          "type": "uint256[2]"
        }
      ],
      "name": "addSolution",
      "outputs": [],
      "stateMutability": "nonpayable",
      "type": "function"
    },
    {
      "inputs": [
        {
          "internalType": "address",
          "name": "to",
          "type": "address"
        },
        {
          "internalType": "uint256",
          "name": "tokenId",
          "type": "uint256"
        }
      ],
      "name": "mint",
      "outputs": [
        {
          "internalType": "bool",
          "name": "",
          "type": "bool"
        }
      ],
      "stateMutability": "nonpayable",
      "type": "function"
    },
    {
      "inputs": [
        {
          "internalType": "uint256",
          "name": "input1",
          "type": "uint256"
        },
        {
          "internalType": "uint256",
          "name": "input2",
          "type": "uint256"
        },
        {
          "internalType": "address",
          "name": "to",
          "type": "address"
        }
      ],
      "name": "mint",
      "outputs": [],
      "stateMutability": "nonpayable",
      "type": "function"
    }
  ],
  "bytecode": "0x608060405260006010553480156200001657600080fd5b5060405162003d6e38038062003d6e83398181016040528101906200003c919062000480565b6040518060400160405280601081526020017f556461636974792043617073746f6e65000000000000000000000000000000008152506040518060400160405280600381526020017f55444300000000000000000000000000000000000000000000000000000000008152506040518060600160405280603f815260200162003d2f603f913982828260008060006101000a81548160ff021916908315150217905550620000f76301ffc9a760e01b620001f860201b60201c565b6200010f6380ac58cd60e01b620001f860201b60201c565b6200012763780e9d6360e01b620001f860201b60201c565b82600a90805190602001906200013f92919062000366565b5081600b90805190602001906200015892919062000366565b5080600c90805190602001906200017192919062000366565b506200018a635b5e139f60e01b620001f860201b60201c565b505050620001ad620001a16200029860201b60201c565b620002a060201b60201c565b50505080600f60006101000a81548173ffffffffffffffffffffffffffffffffffffffff021916908373ffffffffffffffffffffffffffffffffffffffff1602179055505062000517565b63ffffffff60e01b817bffffffffffffffffffffffffffffffffffffffffffffffffffffffff191614156200022c57600080fd5b6001806000837bffffffffffffffffffffffffffffffffffffffffffffffffffffffff19167bffffffffffffffffffffffffffffffffffffffffffffffffffffffff1916815260200190815260200160002060006101000a81548160ff02191690831515021790555050565b600033905090565b6000600e60009054906101000a900473ffffffffffffffffffffffffffffffffffffffff16905081600e60006101000a81548173ffffffffffffffffffffffffffffffffffffffff021916908373ffffffffffffffffffffffffffffffffffffffff1602179055508173ffffffffffffffffffffffffffffffffffffffff168173ffffffffffffffffffffffffffffffffffffffff167f8be0079c531659141344cd1fd0a4f28419497f9722a3daafe3b4186f6b6457e060405160405180910390a35050565b8280546200037490620004e1565b90600052602060002090601f016020900481019282620003985760008555620003e4565b82601f10620003b357805160ff1916838001178555620003e4565b82800160010185558215620003e4579182015b82811115620003e3578251825591602001919060010190620003c6565b5b509050620003f39190620003f7565b5090565b5b8082111562000412576000816000905550600101620003f8565b5090565b600080fd5b600073ffffffffffffffffffffffffffffffffffffffff82169050919050565b600062000448826200041b565b9050919050565b6200045a816200043b565b81146200046657600080fd5b50565b6000815190506200047a816200044f565b92915050565b60006020828403121562000499576200049862000416565b5b6000620004a98482850162000469565b91505092915050565b7f4e487b7100000000000000000000000000000000000000000000000000000000600052602260045260246000fd5b60006002820490506001821680620004fa57607f821691505b60208210811415620005115762000510620004b2565b5b50919050565b61380880620005276000396000f3fe608060405234801561001057600080fd5b506004361061014d5760003560e01c806370a08231116100c3578063bd5957931161007c578063bd595793146103c5578063c87b56dd146103e3578063e7d3fe6b14610413578063e985e9c51461042f578063f2fde38b1461045f578063f76b44311461047b5761014d565b806370a0823114610302578063715018a61461033257806375c705091461033c5780638da5cb5b1461036f578063a22cb4651461038d578063b88d4fde146103a95761014d565b80632f745c59116101155780632f745c591461020857806340c10f191461023857806342842e0e146102685780634f6ccce7146102845780635c975abb146102b45780636352211e146102d25761014d565b806301ffc9a714610152578063081812fc14610182578063095ea7b3146101b257806318160ddd146101ce57806323b872dd146101ec575b600080fd5b61016c600480360381019061016791906121b2565b610497565b60405161017991906121fa565b60405180910390f35b61019c6004803603810190610197919061224b565b6104ff565b6040516101a991906122b9565b60405180910390f35b6101cc60048036038101906101c79190612300565b61053c565b005b6101d6610654565b6040516101e3919061234f565b60405180910390f35b6102066004803603810190610201919061236a565b610661565b005b610222600480360381019061021d9190612300565b610684565b60405161022f919061234f565b60405180910390f35b610252600480360381019061024d9190612300565b6106fe565b60405161025f91906121fa565b60405180910390f35b610282600480360381019061027d919061236a565b610790565b005b61029e6004803603810190610299919061224b565b6107b0565b6040516102ab919061234f565b60405180910390f35b6102bc6107eb565b6040516102c991906121fa565b60405180910390f35b6102ec60048036038101906102e7919061224b565b610801565b6040516102f991906122b9565b60405180910390f35b61031c600480360381019061031791906123bd565b6108b3565b604051610329919061234f565b60405180910390f35b61033a610972565b005b61035660048036038101906103519190612420565b6109fa565b604051610366949392919061244d565b60405180910390f35b610377610a64565b60405161038491906122b9565b60405180910390f35b6103a760048036038101906103a291906124be565b610a8e565b005b6103c360048036038101906103be9190612644565b610bc4565b005b6103cd610bea565b6040516103da919061234f565b60405180910390f35b6103fd60048036038101906103f8919061224b565b610bf0565b60405161040a919061274f565b60405180910390f35b61042d60048036038101906104289190612771565b610ca7565b005b610449600480360381019061044491906127c4565b610edf565b60405161045691906121fa565b60405180910390f35b610479600480360381019061047491906123bd565b610f73565b005b6104956004803603810190610490919061296b565b61106b565b005b600060016000837bffffffffffffffffffffffffffffffffffffffffffffffffffffffff19167bffffffffffffffffffffffffffffffffffffffffffffffffffffffff1916815260200190815260200160002060009054906101000a900460ff169050919050565b60006003600083815260200190815260200160002060009054906101000a900473ffffffffffffffffffffffffffffffffffffffff169050919050565b600061054782610801565b90508073ffffffffffffffffffffffffffffffffffffffff168373ffffffffffffffffffffffffffffffffffffffff1614156105b8576040517f08c379a00000000000000000000000000000000000000000000000000000000081526004016105af90612a46565b60405180910390fd5b8073ffffffffffffffffffffffffffffffffffffffff166105d761135b565b73ffffffffffffffffffffffffffffffffffffffff16148061060657506106058161060061135b565b610edf565b5b610645576040517f08c379a000000000000000000000000000000000000000000000000000000000815260040161063c90612ad8565b60405180910390fd5b61064f8383611363565b505050565b6000600880549050905090565b61066b338261141c565b61067457600080fd5b61067f8383836114b1565b505050565b600061068f836108b3565b821061069a57600080fd5b600660008473ffffffffffffffffffffffffffffffffffffffff1673ffffffffffffffffffffffffffffffffffffffff16815260200190815260200160002082815481106106eb576106ea612af8565b5b9060005260206000200154905092915050565b600061070861135b565b73ffffffffffffffffffffffffffffffffffffffff16610726610a64565b73ffffffffffffffffffffffffffffffffffffffff161461077c576040517f08c379a000000000000000000000000000000000000000000000000000000000815260040161077390612b73565b60405180910390fd5b61078683836114d5565b6001905092915050565b6107ab83838360405180602001604052806000815250610bc4565b505050565b60006107ba610654565b82106107c557600080fd5b600882815481106107d9576107d8612af8565b5b90600052602060002001549050919050565b60008060009054906101000a900460ff16905090565b6000806002600084815260200190815260200160002060009054906101000a900473ffffffffffffffffffffffffffffffffffffffff169050600073ffffffffffffffffffffffffffffffffffffffff168173ffffffffffffffffffffffffffffffffffffffff1614156108aa576040517f08c379a00000000000000000000000000000000000000000000000000000000081526004016108a190612c05565b60405180910390fd5b80915050919050565b60008073ffffffffffffffffffffffffffffffffffffffff168273ffffffffffffffffffffffffffffffffffffffff161415610924576040517f08c379a000000000000000000000000000000000000000000000000000000000815260040161091b90612c97565b60405180910390fd5b61096b600460008473ffffffffffffffffffffffffffffffffffffffff1673ffffffffffffffffffffffffffffffffffffffff1681526020019081526020016000206114ec565b9050919050565b61097a61135b565b73ffffffffffffffffffffffffffffffffffffffff16610998610a64565b73ffffffffffffffffffffffffffffffffffffffff16146109ee576040517f08c379a00000000000000000000000000000000000000000000000000000000081526004016109e590612b73565b60405180910390fd5b6109f860006114fa565b565b60116020528060005260406000206000915090508060000154908060010160009054906101000a900473ffffffffffffffffffffffffffffffffffffffff16908060010160149054906101000a900460ff16908060010160159054906101000a900460ff16905084565b6000600e60009054906101000a900473ffffffffffffffffffffffffffffffffffffffff16905090565b3373ffffffffffffffffffffffffffffffffffffffff168273ffffffffffffffffffffffffffffffffffffffff161415610ac757600080fd5b80600560003373ffffffffffffffffffffffffffffffffffffffff1673ffffffffffffffffffffffffffffffffffffffff16815260200190815260200160002060008473ffffffffffffffffffffffffffffffffffffffff1673ffffffffffffffffffffffffffffffffffffffff16815260200190815260200160002060006101000a81548160ff0219169083151502179055508173ffffffffffffffffffffffffffffffffffffffff163373ffffffffffffffffffffffffffffffffffffffff167f17307eab39ab6107e8899845ad3d59bd9653f200f220920489ca2b5937696c3183604051610bb891906121fa565b60405180910390a35050565b610bcf848484610661565b610bdb848484846115c0565b610be457600080fd5b50505050565b60105481565b6060610bfb826116c8565b610c0457600080fd5b600d60008381526020019081526020016000208054610c2290612ce6565b80601f0160208091040260200160405190810160405280929190818152602001828054610c4e90612ce6565b8015610c9b5780601f10610c7057610100808354040283529160200191610c9b565b820191906000526020600020905b815481529060010190602001808311610c7e57829003601f168201915b50505050509050919050565b60008383604051602001610cbc929190612d39565b604051602081830303815290604052805190602001209050600115156011600083815260200190815260200160002060010160149054906101000a900460ff16151514610d3e576040517f08c379a0000000000000000000000000000000000000000000000000000000008152600401610d3590612db1565b60405180910390fd5b600015156011600083815260200190815260200160002060010160159054906101000a900460ff16151514610da8576040517f08c379a0000000000000000000000000000000000000000000000000000000008152600401610d9f90612e1d565b60405180910390fd5b8173ffffffffffffffffffffffffffffffffffffffff166011600083815260200190815260200160002060010160009054906101000a900473ffffffffffffffffffffffffffffffffffffffff1673ffffffffffffffffffffffffffffffffffffffff1614610e4c576040517f08c379a0000000000000000000000000000000000000000000000000000000008152600401610e4390612eaf565b60405180910390fd5b600060116000838152602001908152602001600020600001549050610e7183826106fe565b5060016011600084815260200190815260200160002060010160156101000a81548160ff0219169083151502179055507f2fea9928a19e716e4adf424191c5b0ad7fa432b5fce336bae3bd21b4e426f9c881604051610ed0919061234f565b60405180910390a15050505050565b6000600560008473ffffffffffffffffffffffffffffffffffffffff1673ffffffffffffffffffffffffffffffffffffffff16815260200190815260200160002060008373ffffffffffffffffffffffffffffffffffffffff1673ffffffffffffffffffffffffffffffffffffffff16815260200190815260200160002060009054906101000a900460ff16905092915050565b610f7b61135b565b73ffffffffffffffffffffffffffffffffffffffff16610f99610a64565b73ffffffffffffffffffffffffffffffffffffffff1614610fef576040517f08c379a0000000000000000000000000000000000000000000000000000000008152600401610fe690612b73565b60405180910390fd5b600073ffffffffffffffffffffffffffffffffffffffff168173ffffffffffffffffffffffffffffffffffffffff16141561105f576040517f08c379a000000000000000000000000000000000000000000000000000000000815260040161105690612f41565b60405180910390fd5b611068816114fa565b50565b60008160006002811061108157611080612af8565b5b60200201518260016002811061109a57611099612af8565b5b60200201516040516020016110b0929190612d39565b604051602081830303815290604052805190602001209050600015156011600083815260200190815260200160002060010160149054906101000a900460ff16151514611132576040517f08c379a000000000000000000000000000000000000000000000000000000000815260040161112990612fad565b60405180910390fd5b6000600f60009054906101000a900473ffffffffffffffffffffffffffffffffffffffff1673ffffffffffffffffffffffffffffffffffffffff1663621e9ec0878787876040518563ffffffff1660e01b81526004016111959493929190613176565b602060405180830381865afa1580156111b2573d6000803e3d6000fd5b505050506040513d601f19601f820116820180604052508101906111d691906131d2565b905080611218576040517f08c379a000000000000000000000000000000000000000000000000000000000815260040161120f9061324b565b60405180910390fd5b604051806080016040528060105481526020013373ffffffffffffffffffffffffffffffffffffffff16815260200160011515815260200160001515815250601160008481526020019081526020016000206000820151816000015560208201518160010160006101000a81548173ffffffffffffffffffffffffffffffffffffffff021916908373ffffffffffffffffffffffffffffffffffffffff16021790555060408201518160010160146101000a81548160ff02191690831515021790555060608201518160010160156101000a81548160ff0219169083151502179055509050507f078793128cefb19aac38a33f9e5df39f67716907f6d747e8065545699e0b2b8d6010543360405161133192919061326b565b60405180910390a160016010600082825461134c91906132c3565b92505081905550505050505050565b600033905090565b816003600083815260200190815260200160002060006101000a81548173ffffffffffffffffffffffffffffffffffffffff021916908373ffffffffffffffffffffffffffffffffffffffff160217905550808273ffffffffffffffffffffffffffffffffffffffff166113d683610801565b73ffffffffffffffffffffffffffffffffffffffff167f8c5be1e5ebec7d5bd14f71427d1e84f3dd0314c0f7b2291e5b200ac8c7c3b92560405160405180910390a45050565b60008061142883610801565b90508073ffffffffffffffffffffffffffffffffffffffff168473ffffffffffffffffffffffffffffffffffffffff16148061149757508373ffffffffffffffffffffffffffffffffffffffff1661147f846104ff565b73ffffffffffffffffffffffffffffffffffffffff16145b806114a857506114a78185610edf565b5b91505092915050565b6114bc83838361173a565b6114c6838261196b565b6114d08282611abd565b505050565b6114df8282611b81565b6114e881611ba2565b5050565b600081600001549050919050565b6000600e60009054906101000a900473ffffffffffffffffffffffffffffffffffffffff16905081600e60006101000a81548173ffffffffffffffffffffffffffffffffffffffff021916908373ffffffffffffffffffffffffffffffffffffffff1602179055508173ffffffffffffffffffffffffffffffffffffffff168173ffffffffffffffffffffffffffffffffffffffff167f8be0079c531659141344cd1fd0a4f28419497f9722a3daafe3b4186f6b6457e060405160405180910390a35050565b60006115e18473ffffffffffffffffffffffffffffffffffffffff16611c86565b6115ee57600190506116c0565b60008473ffffffffffffffffffffffffffffffffffffffff1663150b7a02338887876040518563ffffffff1660e01b815260040161162f949392919061336e565b6020604051808303816000875af115801561164e573d6000803e3d6000fd5b505050506040513d601f19601f8201168201806040525081019061167291906133cf565b905063150b7a0260e01b7bffffffffffffffffffffffffffffffffffffffffffffffffffffffff1916817bffffffffffffffffffffffffffffffffffffffffffffffffffffffff1916149150505b949350505050565b6000806002600084815260200190815260200160002060009054906101000a900473ffffffffffffffffffffffffffffffffffffffff169050600073ffffffffffffffffffffffffffffffffffffffff168173ffffffffffffffffffffffffffffffffffffffff161415915050919050565b8273ffffffffffffffffffffffffffffffffffffffff1661175a82610801565b73ffffffffffffffffffffffffffffffffffffffff16146117b0576040517f08c379a00000000000000000000000000000000000000000000000000000000081526004016117a79061346e565b60405180910390fd5b600073ffffffffffffffffffffffffffffffffffffffff168273ffffffffffffffffffffffffffffffffffffffff161415611820576040517f08c379a000000000000000000000000000000000000000000000000000000000815260040161181790613500565b60405180910390fd5b61182b600082611363565b611872600460008573ffffffffffffffffffffffffffffffffffffffff1673ffffffffffffffffffffffffffffffffffffffff168152602001908152602001600020611ca9565b6118b9600460008473ffffffffffffffffffffffffffffffffffffffff1673ffffffffffffffffffffffffffffffffffffffff168152602001908152602001600020611d05565b816002600083815260200190815260200160002060006101000a81548173ffffffffffffffffffffffffffffffffffffffff021916908373ffffffffffffffffffffffffffffffffffffffff160217905550808273ffffffffffffffffffffffffffffffffffffffff168473ffffffffffffffffffffffffffffffffffffffff167fddf252ad1be2c89b69c2b068fc378daa952ba7f163c4a11628f55a4df523b3ef60405160405180910390a4505050565b60006001600660008573ffffffffffffffffffffffffffffffffffffffff1673ffffffffffffffffffffffffffffffffffffffff168152602001908152602001600020805490506119bc9190613520565b9050600060076000848152602001908152602001600020549050818114611ab7576000600660008673ffffffffffffffffffffffffffffffffffffffff1673ffffffffffffffffffffffffffffffffffffffff1681526020019081526020016000208381548110611a3057611a2f612af8565b5b9060005260206000200154905080600660008773ffffffffffffffffffffffffffffffffffffffff1673ffffffffffffffffffffffffffffffffffffffff1681526020019081526020016000208381548110611a8f57611a8e612af8565b5b9060005260206000200181905550816007600083815260200190815260200160002081905550505b50505050565b600660008373ffffffffffffffffffffffffffffffffffffffff1673ffffffffffffffffffffffffffffffffffffffff168152602001908152602001600020805490506007600083815260200190815260200160002081905550600660008373ffffffffffffffffffffffffffffffffffffffff1673ffffffffffffffffffffffffffffffffffffffff1681526020019081526020016000208190806001815401808255809150506001900390600052602060002001600090919091909150555050565b611b8b8282611d1b565b611b958282611abd565b611b9e81611ecd565b5050565b611bab816116c8565b611bb457600080fd5b6000611bbf82611f16565b90506000611c57600c8054611bd390612ce6565b80601f0160208091040260200160405190810160405280929190818152602001828054611bff90612ce6565b8015611c4c5780601f10611c2157610100808354040283529160200191611c4c565b820191906000526020600020905b815481529060010190602001808311611c2f57829003601f168201915b505050505083612077565b905080600d60008581526020019081526020016000209080519060200190611c809291906120a3565b50505050565b6000808273ffffffffffffffffffffffffffffffffffffffff163b119050919050565b60008160000154905060008111611cf5576040517f08c379a0000000000000000000000000000000000000000000000000000000008152600401611cec906135a0565b60405180910390fd5b6001810382600001819055505050565b6001816000016000828254019250508190555050565b600073ffffffffffffffffffffffffffffffffffffffff168273ffffffffffffffffffffffffffffffffffffffff161415611d8b576040517f08c379a0000000000000000000000000000000000000000000000000000000008152600401611d829061360c565b60405180910390fd5b611d94816116c8565b15611dd4576040517f08c379a0000000000000000000000000000000000000000000000000000000008152600401611dcb90613678565b60405180910390fd5b611e1b600460008473ffffffffffffffffffffffffffffffffffffffff1673ffffffffffffffffffffffffffffffffffffffff168152602001908152602001600020611d05565b816002600083815260200190815260200160002060006101000a81548173ffffffffffffffffffffffffffffffffffffffff021916908373ffffffffffffffffffffffffffffffffffffffff160217905550808273ffffffffffffffffffffffffffffffffffffffff16600073ffffffffffffffffffffffffffffffffffffffff167fddf252ad1be2c89b69c2b068fc378daa952ba7f163c4a11628f55a4df523b3ef60405160405180910390a45050565b6008805490506009600083815260200190815260200160002081905550600881908060018154018082558091505060019003906000526020600020016000909190919091505550565b60606000821415611f5e576040518060400160405280600181526020017f30000000000000000000000000000000000000000000000000000000000000008152509050612072565b600082905060005b60008214611f90578080611f7990613698565b915050600a82611f899190613710565b9150611f66565b60008167ffffffffffffffff811115611fac57611fab612519565b5b6040519080825280601f01601f191660200182016040528015611fde5781602001600182028036833780820191505090505b5090505b6000851461206b57600182611ff79190613520565b9150600a856120069190613741565b603061201291906132c3565b60f81b81838151811061202857612027612af8565b5b60200101907effffffffffffffffffffffffffffffffffffffffffffffffffffffffffffff1916908160001a905350600a856120649190613710565b9450611fe2565b8093505050505b919050565b6060828260405160200161208c9291906137ae565b604051602081830303815290604052905092915050565b8280546120af90612ce6565b90600052602060002090601f0160209004810192826120d15760008555612118565b82601f106120ea57805160ff1916838001178555612118565b82800160010185558215612118579182015b828111156121175782518255916020019190600101906120fc565b5b5090506121259190612129565b5090565b5b8082111561214257600081600090555060010161212a565b5090565b6000604051905090565b600080fd5b600080fd5b60007fffffffff0000000000000000000000000000000000000000000000000000000082169050919050565b61218f8161215a565b811461219a57600080fd5b50565b6000813590506121ac81612186565b92915050565b6000602082840312156121c8576121c7612150565b5b60006121d68482850161219d565b91505092915050565b60008115159050919050565b6121f4816121df565b82525050565b600060208201905061220f60008301846121eb565b92915050565b6000819050919050565b61222881612215565b811461223357600080fd5b50565b6000813590506122458161221f565b92915050565b60006020828403121561226157612260612150565b5b600061226f84828501612236565b91505092915050565b600073ffffffffffffffffffffffffffffffffffffffff82169050919050565b60006122a382612278565b9050919050565b6122b381612298565b82525050565b60006020820190506122ce60008301846122aa565b92915050565b6122dd81612298565b81146122e857600080fd5b50565b6000813590506122fa816122d4565b92915050565b6000806040838503121561231757612316612150565b5b6000612325858286016122eb565b925050602061233685828601612236565b9150509250929050565b61234981612215565b82525050565b60006020820190506123646000830184612340565b92915050565b60008060006060848603121561238357612382612150565b5b6000612391868287016122eb565b93505060206123a2868287016122eb565b92505060406123b386828701612236565b9150509250925092565b6000602082840312156123d3576123d2612150565b5b60006123e1848285016122eb565b91505092915050565b6000819050919050565b6123fd816123ea565b811461240857600080fd5b50565b60008135905061241a816123f4565b92915050565b60006020828403121561243657612435612150565b5b60006124448482850161240b565b91505092915050565b60006080820190506124626000830187612340565b61246f60208301866122aa565b61247c60408301856121eb565b61248960608301846121eb565b95945050505050565b61249b816121df565b81146124a657600080fd5b50565b6000813590506124b881612492565b92915050565b600080604083850312156124d5576124d4612150565b5b60006124e3858286016122eb565b92505060206124f4858286016124a9565b9150509250929050565b600080fd5b600080fd5b6000601f19601f8301169050919050565b7f4e487b7100000000000000000000000000000000000000000000000000000000600052604160045260246000fd5b61255182612508565b810181811067ffffffffffffffff821117156125705761256f612519565b5b80604052505050565b6000612583612146565b905061258f8282612548565b919050565b600067ffffffffffffffff8211156125af576125ae612519565b5b6125b882612508565b9050602081019050919050565b82818337600083830152505050565b60006125e76125e284612594565b612579565b90508281526020810184848401111561260357612602612503565b5b61260e8482856125c5565b509392505050565b600082601f83011261262b5761262a6124fe565b5b813561263b8482602086016125d4565b91505092915050565b6000806000806080858703121561265e5761265d612150565b5b600061266c878288016122eb565b945050602061267d878288016122eb565b935050604061268e87828801612236565b925050606085013567ffffffffffffffff8111156126af576126ae612155565b5b6126bb87828801612616565b91505092959194509250565b600081519050919050565b600082825260208201905092915050565b60005b838110156127015780820151818401526020810190506126e6565b83811115612710576000848401525b50505050565b6000612721826126c7565b61272b81856126d2565b935061273b8185602086016126e3565b61274481612508565b840191505092915050565b600060208201905081810360008301526127698184612716565b905092915050565b60008060006060848603121561278a57612789612150565b5b600061279886828701612236565b93505060206127a986828701612236565b92505060406127ba868287016122eb565b9150509250925092565b600080604083850312156127db576127da612150565b5b60006127e9858286016122eb565b92505060206127fa858286016122eb565b9150509250929050565b600067ffffffffffffffff82111561281f5761281e612519565b5b602082029050919050565b600080fd5b600061284261283d84612804565b612579565b9050806020840283018581111561285c5761285b61282a565b5b835b8181101561288557806128718882612236565b84526020840193505060208101905061285e565b5050509392505050565b600082601f8301126128a4576128a36124fe565b5b60026128b184828561282f565b91505092915050565b600067ffffffffffffffff8211156128d5576128d4612519565b5b602082029050919050565b60006128f36128ee846128ba565b612579565b9050806040840283018581111561290d5761290c61282a565b5b835b818110156129365780612922888261288f565b84526020840193505060408101905061290f565b5050509392505050565b600082601f830112612955576129546124fe565b5b60026129628482856128e0565b91505092915050565b600080600080610140858703121561298657612985612150565b5b60006129948782880161288f565b94505060406129a587828801612940565b93505060c06129b68782880161288f565b9250506101006129c88782880161288f565b91505092959194509250565b7f4552433732313a20617070726f76616c20746f2063757272656e74206f776e6560008201527f7200000000000000000000000000000000000000000000000000000000000000602082015250565b6000612a306021836126d2565b9150612a3b826129d4565b604082019050919050565b60006020820190508181036000830152612a5f81612a23565b9050919050565b7f4552433732313a20617070726f76652063616c6c6572206973206e6f74206f7760008201527f6e6572206e6f7220617070726f76656420666f7220616c6c0000000000000000602082015250565b6000612ac26038836126d2565b9150612acd82612a66565b604082019050919050565b60006020820190508181036000830152612af181612ab5565b9050919050565b7f4e487b7100000000000000000000000000000000000000000000000000000000600052603260045260246000fd5b7f4f776e61626c653a2063616c6c6572206973206e6f7420746865206f776e6572600082015250565b6000612b5d6020836126d2565b9150612b6882612b27565b602082019050919050565b60006020820190508181036000830152612b8c81612b50565b9050919050565b7f4552433732313a206f776e657220717565727920666f72206e6f6e657869737460008201527f656e7420746f6b656e0000000000000000000000000000000000000000000000602082015250565b6000612bef6029836126d2565b9150612bfa82612b93565b604082019050919050565b60006020820190508181036000830152612c1e81612be2565b9050919050565b7f4552433732313a2062616c616e636520717565727920666f7220746865207a6560008201527f726f206164647265737300000000000000000000000000000000000000000000602082015250565b6000612c81602a836126d2565b9150612c8c82612c25565b604082019050919050565b60006020820190508181036000830152612cb081612c74565b9050919050565b7f4e487b7100000000000000000000000000000000000000000000000000000000600052602260045260246000fd5b60006002820490506001821680612cfe57607f821691505b60208210811415612d1257612d11612cb7565b5b50919050565b6000819050919050565b612d33612d2e82612215565b612d18565b82525050565b6000612d458285612d22565b602082019150612d558284612d22565b6020820191508190509392505050565b7f4e6f20736f6c7574696f6e20666f756e64000000000000000000000000000000600082015250565b6000612d9b6011836126d2565b9150612da682612d65565b602082019050919050565b60006020820190508181036000830152612dca81612d8e565b9050919050565b7f546f6b656e20616c7265616479206d696e746564000000000000000000000000600082015250565b6000612e076014836126d2565b9150612e1282612dd1565b602082019050919050565b60006020820190508181036000830152612e3681612dfa565b9050919050565b7f43616e27742075736520616e6f7468657220616464726573732720736f6c757460008201527f696f6e0000000000000000000000000000000000000000000000000000000000602082015250565b6000612e996023836126d2565b9150612ea482612e3d565b604082019050919050565b60006020820190508181036000830152612ec881612e8c565b9050919050565b7f4f776e61626c653a206e6577206f776e657220697320746865207a65726f206160008201527f6464726573730000000000000000000000000000000000000000000000000000602082015250565b6000612f2b6026836126d2565b9150612f3682612ecf565b604082019050919050565b60006020820190508181036000830152612f5a81612f1e565b9050919050565b7f536f6c7574696f6e2065786973747320616c7265616479000000000000000000600082015250565b6000612f976017836126d2565b9150612fa282612f61565b602082019050919050565b60006020820190508181036000830152612fc681612f8a565b9050919050565b600060029050919050565b600081905092915050565b6000819050919050565b612ff681612215565b82525050565b60006130088383612fed565b60208301905092915050565b6000602082019050919050565b61302a81612fcd565b6130348184612fd8565b925061303f82612fe3565b8060005b838110156130705781516130578782612ffc565b965061306283613014565b925050600181019050613043565b505050505050565b600060029050919050565b600081905092915050565b6000819050919050565b600081905092915050565b6130ac81612fcd565b6130b68184613098565b92506130c182612fe3565b8060005b838110156130f25781516130d98782612ffc565b96506130e483613014565b9250506001810190506130c5565b505050505050565b600061310683836130a3565b60408301905092915050565b6000602082019050919050565b61312881613078565b6131328184613083565b925061313d8261308e565b8060005b8381101561316e57815161315587826130fa565b965061316083613112565b925050600181019050613141565b505050505050565b60006101408201905061318c6000830187613021565b613199604083018661311f565b6131a660c0830185613021565b6131b4610100830184613021565b95945050505050565b6000815190506131cc81612492565b92915050565b6000602082840312156131e8576131e7612150565b5b60006131f6848285016131bd565b91505092915050565b7f536f6c7574696f6e20636f756c64206e6f742062652076657269666965640000600082015250565b6000613235601e836126d2565b9150613240826131ff565b602082019050919050565b6000602082019050818103600083015261326481613228565b9050919050565b60006040820190506132806000830185612340565b61328d60208301846122aa565b9392505050565b7f4e487b7100000000000000000000000000000000000000000000000000000000600052601160045260246000fd5b60006132ce82612215565b91506132d983612215565b9250827fffffffffffffffffffffffffffffffffffffffffffffffffffffffffffffffff0382111561330e5761330d613294565b5b828201905092915050565b600081519050919050565b600082825260208201905092915050565b600061334082613319565b61334a8185613324565b935061335a8185602086016126e3565b61336381612508565b840191505092915050565b600060808201905061338360008301876122aa565b61339060208301866122aa565b61339d6040830185612340565b81810360608301526133af8184613335565b905095945050505050565b6000815190506133c981612186565b92915050565b6000602082840312156133e5576133e4612150565b5b60006133f3848285016133ba565b91505092915050565b7f4552433732313a207472616e736665722066726f6d20696e636f72726563742060008201527f6f776e6572000000000000000000000000000000000000000000000000000000602082015250565b60006134586025836126d2565b9150613463826133fc565b604082019050919050565b600060208201905081810360008301526134878161344b565b9050919050565b7f4552433732313a207472616e7366657220746f20746865207a65726f2061646460008201527f7265737300000000000000000000000000000000000000000000000000000000602082015250565b60006134ea6024836126d2565b91506134f58261348e565b604082019050919050565b60006020820190508181036000830152613519816134dd565b9050919050565b600061352b82612215565b915061353683612215565b92508282101561354957613548613294565b5b828203905092915050565b7f436f756e7465723a2064656372656d656e74206f766572666c6f770000000000600082015250565b600061358a601b836126d2565b915061359582613554565b602082019050919050565b600060208201905081810360008301526135b98161357d565b9050919050565b7f4552433732313a206d696e7420746f20746865207a65726f2061646472657373600082015250565b60006135f66020836126d2565b9150613601826135c0565b602082019050919050565b60006020820190508181036000830152613625816135e9565b9050919050565b7f4552433732313a20746f6b656e20616c7265616479206d696e74656400000000600082015250565b6000613662601c836126d2565b915061366d8261362c565b602082019050919050565b6000602082019050818103600083015261369181613655565b9050919050565b60006136a382612215565b91507fffffffffffffffffffffffffffffffffffffffffffffffffffffffffffffffff8214156136d6576136d5613294565b5b600182019050919050565b7f4e487b7100000000000000000000000000000000000000000000000000000000600052601260045260246000fd5b600061371b82612215565b915061372683612215565b925082613736576137356136e1565b5b828204905092915050565b600061374c82612215565b915061375783612215565b925082613767576137666136e1565b5b828206905092915050565b600081905092915050565b6000613788826126c7565b6137928185613772565b93506137a28185602086016126e3565b80840191505092915050565b60006137ba828561377d565b91506137c6828461377d565b9150819050939250505056fea2646970667358221220cc8f354f8348cc05a89936b78da50350d07aed1e5975c1a6f11eb2470de4dcae64736f6c634300080c003368747470733a2f2f73332d75732d776573742d322e616d617a6f6e6177732e636f6d2f756461636974792d626c6f636b636861696e2f63617073746f6e652f",
  "immutableReferences": {},
  "source": "// SPDX-License-Identifier: MIT\npragma solidity ^0.8.0;\n\nimport \"./SquareVerifier.sol\";\nimport \"./CapstoneToken.sol\";\n\ncontract SolutionVerifier is CapstoneToken {\n    struct Solution {\n        uint256 solutionIndex;\n        address solutionAddress;\n        bool solutionExists;\n        bool minted;\n    }\n\n    SquareVerifier private verifierContract;\n\n    uint256 public numberOfSolutions = 0;\n    mapping(bytes32 => Solution) public solutions;\n\n    event SolutionAdded(uint256 solutionIndex, address solutionAddress);\n    event SolutionMinted(uint256 solutionIndex);\n\n    constructor(address verifierAddress) CapstoneToken() {\n        verifierContract = SquareVerifier(verifierAddress);\n    }\n\n    function addSolution(\n        uint256[2] memory a,\n        uint256[2][2] memory b,\n        uint256[2] memory c,\n        uint256[2] memory input\n    ) public {\n        bytes32 solutionHash = keccak256(abi.encodePacked(input[0], input[1]));\n        require(\n            solutions[solutionHash].solutionExists == false,\n            \"Solution exists already\"\n        );\n\n        bool verified = verifierContract.verifyTx(a, b, c, input);\n        require(verified, \"Solution could not be verified\");\n\n        solutions[solutionHash] = Solution(\n            numberOfSolutions,\n            msg.sender,\n            true,\n            false\n        );\n\n        emit SolutionAdded(numberOfSolutions, msg.sender);\n        numberOfSolutions += 1;\n    }\n\n    function mint(\n        uint256 input1,\n        uint256 input2,\n        address to\n    ) public {\n        bytes32 solutionHash = keccak256(abi.encodePacked(input1, input2));\n\n        require(\n            solutions[solutionHash].solutionExists == true,\n            \"No solution found\"\n        );\n        require(\n            solutions[solutionHash].minted == false,\n            \"Token already minted\"\n        );\n        require(\n            solutions[solutionHash].solutionAddress == to,\n            \"Can't use another address' solution\"\n        );\n\n        uint256 index = solutions[solutionHash].solutionIndex;\n        \n        super.mint(to, index);\n        solutions[solutionHash].minted = true;\n\n        emit SolutionMinted(index);\n    }\n}",
  "sourcePath": "/Users/danielmallcott/Coding/BlockchainCapstone/eth-contracts/contracts/SolutionVerifier.sol",
  "compiler": {
    "name": "solc",
    "version": "0.8.12+commit.f00d7308.Emscripten.clang"
  },
  "schemaVersion": "3.4.4",
  "updatedAt": "2022-02-26T22:13:04.006Z",
  "networkType": "ethereum",
  "devdoc": {
    "kind": "dev",
    "methods": {
      "owner()": {
        "details": "Returns the address of the current owner."
      },
      "paused()": {
        "details": "Returns true if the contract is paused, and false otherwise."
      },
      "renounceOwnership()": {
        "details": "Leaves the contract without owner. It will not be possible to call `onlyOwner` functions anymore. Can only be called by the current owner. NOTE: Renouncing ownership will leave the contract without an owner, thereby removing any functionality that is only available to the owner."
      },
      "transferOwnership(address)": {
        "details": "Transfers ownership of the contract to a new account (`newOwner`). Can only be called by the current owner."
      }
    },
    "version": 1
  },
  "userdoc": {
    "kind": "user",
    "methods": {
      "mint(address,uint256)": {
        "notice": "Instructions said: \"takes in a 'to' address, tokenId, and tokenURI as parameters\". I will not pass a tokenUri considering there's a base token uri defined in the contract."
      }
    },
    "version": 1
  }
}